:03000000020200F9
:030023000202676F
:1002000075815F75A880759890758780758E8075EB
:10021000860079807C007A807B007E007F40784079
:10022000755700907F957403F0907FC8E020E1F946
:10023000907DC0E0907FC9F01202A2907FB8E020CC
:10024000E1F9907FC8E020E1F9907DC0E0907FC99E
:10025000F01202A2B40809C3BE010280FB020242EE
:10026000C3B406DE020200C082C083C0E0BE000943
:100270007E01907E00A882A983E599C298C38882F6
:100280008983F0A3A882A983DF117E007F40907F3D
:10029000B97440F0907FB8E020E1F9D0E0D083D08D
:0F02A0008232C3C2ACF5993099FDC299D2AC221B
:00000001FF
